:020000040000fa
:10000000f0ff0320b1120000a71a0000ad1a000093
:10001000b91a0000bf1a0000c51a00000000000055
:100020000000000000000000000000005b12000063
:10003000b31a0000000000005b1200005b12000019
:100040005b1200005b1200005b1200005b120000fc
:100050005b1200005b1200005b1200005b120000ec
:100060005b1200005b1200005b120000c91600006a
:100070005b1200005b1200005b1200005b120000cc
:100080005b1200005b1200005b1200005b120000bc
:100090005b1200005b1200005b1200005b120000ac
:1000a0005b1200005b1200005b1200003d170000b5
:1000b0005b1200005b1200005b1200007d1a000062
:1000c0005b1200005b1200005b1200005b1200007c
:1000d0005b1200005b1200005b1200005b1200006c
:1000e0005b1200005b120000000000000000000036
:1000f000000000005b1200005b1200005b120000b9
:100100005b1200005b1200005b1200005b1200003b
:100110005b1200005b1200005b1200005b1200002b
:100120005b1200005b1200005b1200005b1200001b
:100130005b1200005b1200005b1200005b1200000b
:100140005b1200005b1200005b1200005b120000fb
:100150005b1200005b1200000000000000000000c5
:10016000000000000000000000000000000000008f
:1001700000000000000000005b1200005b120000a5
:100180005b1200005b1200005b1200005b120000bb
:10019000000000005b1200005b1200005b12000018
:1001a0005b1200005b1200005b1200005b1200009b
:1001b0005b1200005b1200005b1200005b1200008b
:1001c0005b1200005b1200005b1200005b1200007b
:1001d0005b1200005b1200005b1200005b1200006b
:1001e0005b1200005b1200005b1200005b1200005b
:1001f0005b1200005b1200005b1200005b1200004b
:100200005b12000000000000000000005b12000014
:100210005b1200005b1200005b1200005b1200002a
:100220005b1200005b1200005b1200005b1200001a
:100230005b1200005b1200005b1200005b1200000a
:100240005b1200005b1200005b1200005b120000fa
:100250005b1200005b1200005b1200005b120000ea
:020000040000fa
:10026000f8b500bff8bc08bc9e467047b515000045
:10027000f8b500bff8bc08bc9e4670479115000059
:020000040000fa
:08028000100300000100000062
:020000040000fa
:100288002de9f041aeb006461546059100270599bf
:100298000b78002b00f0fa8000244ff0ff33cde9f3
:1002a80009430eab0c9380230b940d930b5d0bb19c
:1002b800252b26d134b12246304601f01ffb059b81
:1002c80023440593059b1a78252a40f0d78003f12b
:1002d8000108cdf81480059803782b2b1ad025d85f
:1002e800202b1bd0232b1dd02a2b27d001f0c2f89e
:1002f8000b90059b1a78303a092a2ed801330593ba
:10030800f7e70134d2e7099b43f001030130099371
:100318000590e0e7099b43f00403f7e7099b43f0e6
:100328000803f3e7099b43f01003efe72d2bead00e
:10033800302bd9d1099b43f00203e7e72b681a1d3c
:100348001b682a600130002b05900b9305da099a87
:100358005b4282f0010209920b93099bda0744bfc2
:1003680023f002030993059b1a782e2a0dd1002247
:10037800581c0a9205905a782a2a25d102330593e7
:100388002b681a1d1b682a600a9305a801f0b6f9a4
:10039800059b0390187801f07bfb6928039979d0b5
:1003a80032dc632800f0cb8019dc252800f0d980e6
:1003b800612853d000234ff0ff32cdf81480099301
:1003c8000b930a920093d4e001f054f80a90059b2d
:1003d8001a78303a092ad8d801330593f7e7642800
:1003e80058d06728e6dc2a4606a801f049fa002812
:1003f80000f0a180059b5a1c05921b7806aa09a942
:10040800304601f062fb38e0702873d015dc6e28a6
:1004180000f08c806f28cdd12b46002206a800f072
:100428001dfc002800f08780059b06aa013309a956
:100438003046059301f047fb1fe075283ad078282d
:1004480048d07328b6d1802975d1059b2a68013315
:100458000593131d2b60126800237de02a4606a829
:1004680001f00efa002866d0059b5a1c05921b78ed
:1004780006aa09a9304601f028fb04443c44a742d7
:100488007add3e4b4f221a604ff0ff3738462eb0c8
:10049800bde8f0812b46012206a800f0dffb00280a
:1004a80049d0059b06aa013309a93046059300f0f7
:1004b8002bfce2e72b46002206a800f0cffb002821
:1004c80039d0059b06aa013309a93046059300f0e7
:1004d80095fed2e72b46002206a800f0bffb50b3da
:1004e800059b5a1c05921b7806aa09a9304601f0fb
:1004f800ecfac2e72b460022f02106a800f0aefb7a
:10050800c8b1059b01330593dde9062313430bd1dd
:100518001b4801f099fa099b009319490b9b024665
:10052800304600f0e3fca8e77823dde72b463a19cc
:1005380006a800f01bfd059b013305939ee7802963
:10054800f9d1059b013305932b681a1d1b682a6096
:100558008df8183006aa012309a9304601f0b7fa28
:100568008be78029e7d1059b01330593099b00930d
:100578000b9b04490122d3e7274688e600030020a5
:08058800661900006c19000067
:020000040000fa
:100590002de9f04f099f154604468e461e46002b56
:1005a00040f0cc808a42b2fa82fc4cd9bcf1000ff8
:1005b0000bd0ccf1200801fa0cfe20fa08f802fa60
:1005c0000cf548ea0e0e00fa0cf44fea15491ffa32
:1005d00085f8befbf9fa210c09fb1ae30afb08fbbc
:1005e00041ea03439b452ad9eb180af1ff3004d2b4
:1005f0009b4502d9aaf102002b44a3eb0b03a4b242
:10060000b3fbf9f209fb123302fb08f844ea034496
:10061000a04516d92c1902f1ff3303d2a04501d908
:10062000931e2c44a4eb080443ea004027b124faab
:100630000cf400233c607b603146bde8f08f5046ef
:10064000dbe71346eee702b9ffdebcf1000f2ed167
:100650008b1a01264fea154eaab2b3fbfef8210c05
:100660000efb183308fb02f941ea0343994561d9af
:10067000eb1808f1ff3004d2994502d9a8f1020025
:100680002b44a3eb0903a4b2b3fbfef10efb113321
:100690004a4344ea0344a2424ed92c1901f1ff33e4
:1006a00003d2a24201d98b1e2c44a41abce7ccf180
:1006b000200e02fa0cf521fa0ef901fa0cf320fad9
:1006c0000efe4eea03034fea154800fa0cf4b9fb9c
:1006d000f8f11ffa85fe08fb1192180c01fb0ef6cb
:1006e00040ea0242964221d9aa1801f1ff3003d212
:1006f000964201d9881e2a44921b9bb2b2fbf8f99c
:1007000008fb192209fb0efe43ea02439e450fd95e
:10071000eb1809f1ff3604d29e4502d9a9f1020671
:100720002b44a3eb0e0346ea004693e70846e3e7b3
:100730004e46f6e74046a4e70b46b6e78b4206d99d
:10074000002f7ed00026c7e90001304674e7b3fad7
:1007500083fcbcf1000f0fd18b4201d3824209d838
:10076000841a61eb030e0120002f6dd0c7e9004e03
:10077000002661e76046f7e7ccf1200e03fa0cf3a0
:1007800022fa0ef521fa0ef41d4301fa0cf320fab9
:100790000ef10b434fea154a00fa0cf6b4fbfaf9d6
:1007a0001ffa85f80afb19401c0c09fb08f144ea02
:1007b0000044a14202fa0cf23fd92c1909f1ff3092
:1007c00004d2a14202d9a9f102002c44641a9bb2be
:1007d000b4fbfaf90afb194409fb08f843ea04419f
:1007e00088452cd9691809f1ff3304d2884502d90c
:1007f000a9f10203294443ea0040a1eb0801a0fb50
:1008000002894945c2464c4602d306d1464504d228
:10081000b8eb020a69eb05040138afb1b6eb0a0385
:1008200061eb040606fa0efe23fa0cf34eea03030c
:1008300026fa0cf6c7e900369ae74846c6e74b4663
:0c084000d9e73e463846f7e63e46f5e6ae
:020000040000fa
:10084c0080b487b000afb9607a603b600346fb733d
:10085c000023bb750023fb75fb7b4c4a1b01134427
:10086c000c331b78002b0ad0494afb7b1b01134429
:10087c004e331b78dbb203f00303002b7ed0444acb
:10088c00fb7b1b0113444e3303221a70fb7b3f4a44
:10089c001b0113440c3301221a70fb7b1b013d4ad4
:1008ac0013443b613b691b889bb203f48063002bb0
:1008bc0005d0ba683b681a443b695a6002e0ba68d2
:1008cc003b695a603b691b889bb203f40063002ba5
:1008dc0005d07a683b681a443b699a600ee02c4b51
:1008ec005b889bb203f44043002b03d17a683b69cd
:1008fc009a6003e07b681a683b699a603b691b88c5
:10090c009bb21b0adbb203f00303bb75bb7d3a68d9
:10091c0022fa03f39ab23b695a801d4afb7b0433db
:10092c001b0113441a681a49fb7b42f00202043380
:10093c001b010b441a60164afb7b04331b01134446
:10094c001b681b0a03f07f03002b15d1104afb7b9d
:10095c0004331b01134406331b78dbb203f0400352
:10096c00402b09d00a4b1b69fa7b012101fa02f2d8
:10097c001146074a0b4313610123fb75fb7d184697
:10098c001c37bd465df8047b704700bf000000209b
:08099c0000a00041e002002070
:020000040000fa
:1009a40080b400af3d4b1b78dbb23c4a43f00103fb
:1009b400dbb2137000bf394b5b6803f00103012bfa
:1009c400f9d0364b1b78dbb2344a43f01003dbb268
:1009d4001370324b0022da61304b4ff010421a622e
:1009e4002e4b4ff400421a632c4b00225a632b4bbc
:1009f4004ff400421a612a4b10221a72284b10221b
:100a04001a75274b102283f82020254b102283f8d7
:100a14002c20234b102283f83820214b102283f8fa
:100a240044201f4b102283f850201d4b102283f8c2
:100a34005c201b4b102283f86820194b102283f88a
:100a44007420174b102283f88020154b102283f852
:100a54008c20134b102283f89820114b102283f81a
:100a6400a4200f4b102283f8b0200d4b0f2283f8e3
:100a7400bc200a4b1b78dbb2084a43f00203dbb20a
:100a8400137000bf054b5b6803f00203022bf9d01f
:100a940000bfbd465df8047b704700bf00280040de
:040aa400a00100208d
:020000040000fa
:100aa800b00200201c00000000000000d00200205e
:100ab80020000000000000000000002010000000de
:100ac80000000000a0010020c0000000000000009d
:100ad800f00200200c0000000000000004030020c9
:100ae80001000000000000000503002001000000d4
:100af800010000000100000010000020900100002b
:100b080000000000cc0200200400000000000000eb
:100b1800600200205000000000000000fc020020dd
:100b280008000000000000000000000000000000b5
:080b3800666666666666666685
:020000040000fa
:100ba80080b586b002af002000f0defd00222349a8
:100bb800002000f049fd0021214800f077fe00f0f8
:100bc800edfd0023bb6000237b600023fb601d4b11
:100bd8004ff48042da611c4b00221a701b4b002232
:100be8001a70b86800f020ff78607b680193bb68d2
:100bf8000093fb68164a4ff4c871164800f0defef1
:100c0800fb680133fb60134800f01eff0346124add
:100c180010490020fff716fe00bf0b4b1b78dbb214
:100c280083f00103dbb2002bf7d1084b1b78dbb252
:100c380083f00103dbb2002befd1c8e7dd18000019
:100c48005d18000000800041040300200503002017
:0c0c5800341400001000002028040043a9
:020000040000fa
:100c6400882910b536d012dc812943d003dc8029d1
:100c740040d0002010bd82290ed08429f9d11968f2
:100c840002b30a1d1a60b1f90020d3171ee0a0298f
:100c94002bd00bdc9029ecd11968073121f0070126
:100ca40001f108021a60d1e900230fe0c02901d044
:100cb400f029ded11a68111d19601368036000233e
:100cc400436005e00a1d1a600a880023c0e9002376
:100cd4000120cfe7196822b10a1d1a6091f900209a
:100ce400d3e70a1d1a600a78efe71a68111d196024
:100cf4001268cae719681ab10a1d1a600a68c4e7bb
:0c0d04000c1d1c600b68c0e90032e1e728
:020000040000fa
:100d10002de9f041d2e900230c4686b007465fea90
:100d2000d37820684968a5680590e66841d05242aa
:100d300063eb4303002908db20f002000590b8f1c3
:100d4000000f02d1059948072ad5691e05a802900f
:100d50000a20cde90010204600f04af9b8f1000f52
:100d600002d1059b59071fd5b8f1000f00f1ff30e4
:100d700014bf2d232b2333542269059b0093013a82
:100d80002b46121a3118384600f0b4f87b68db05a0
:100d900003d563689842b8bf184606b0bde8f08135
:100da0000807d2d42946d1e71a07e5d50138202310
:080db000e1e70029c0dac5e704
:020000040000fa
:100db80080b483b000af214b7b6000233b600023ed
:100dc8003b6011e07b6800221a707b6800225a6041
:100dd8007b6800229a607b6800221a737b68103354
:100de8007b603b6801333b603b68002bead0144bc7
:100df800144a5a63124b144a9a63114b4ff08132ca
:100e08005a610f4b114a1a640e4b40f209421a807c
:100e18000b4b002283f84520084b01221a70084b1f
:100e2800032283f84d20064b40f602721a8000bf59
:100e38000c37bd465df8047b704700bf00000020fa
:100e480000a00041e0020020d0020020000f200096
:020000040000fa
:100e580080b586b000af0346fb7100233b610023d9
:100e6800fb600223fb75fb791b011e4a13443b619f
:100e78001d4afb791b0113444e331b78dbb2fb6020
:100e8800fb6803f00203002b0bd0174afb791b0108
:100e980013444e3302221a700123fb753b6900226a
:100ea8001a73fb6803f00103002b0bd00e4afb7981
:100eb8001b0113444e3301221a700223fb753b6950
:100ec80000221a733b695b68002b06d03b695b689c
:100ed8003a699168fa7d1046984700bf1837bd46b1
:0c0ee80080bd00bf0000002000a0004101
:020000040000fa
:100ef4002de9ff471d460c9b13f0010906468a465f
:100f0400144601d195420bd822465146304600f092
:100f1400f7fca54204d82546284604b0bde8f0876e
:100f24002f1b102f3a464ff0200128bf102268468d
:100f3400b84600f083fdb8f10f0f11d83b096ff0ec
:100f44000f0202fb03726946304600f0d9fcb9f186
:100f5400000fe1d122465146304600f0d1fcdbe7d8
:100f640010226946304600f0cbfca8f11008e2e7f5
:020000040000fa
:100f7400842910b523d00cdc812903d0822913d015
:100f840080290bd119680c1d1c600b6803601a6062
:100f940013e0902921d003dc882917d0002010bd4c
:100fa400a029efd0c029ece719680c1d1c600b6860
:100fb4000360d1171046c3e900010120efe7196867
:100fc4000c1d1c600b6803601a80f6e719680c1d81
:100fd4001c600b6803601a70efe719680c1d1c6035
:0c0fe40009680160d317c1e90023e6e7ab
:020000040000fa
:100ff0002de9f84f04460c9f6668d4f80cb02469bc
:1010000010463a68013c002502f0020a0b9a0bf8e0
:101010000450002e1946b8bf0126012390464fea1e
:10102000e279002c03dcd3b12046bde8f88f50ea0a
:10103000010209d1721b002a06dc0a9a521b002aff
:10104000f1ddbaf1000feed042464b4600f0c2fb94
:10105000013c134630320bf804200135e1e73b68d0
:0810600023f010033b60dfe701
:020000040000fa
:1010680080b500af00f0f8fc00f0b6fc00f0fbfc27
:1010780000f0dafb00f02ef800f020fa00f0befbda
:10108800124b4122c3f8902000bf104bd3f8903088
:1010980003f04003402bf8d10c4b4122c3f80c213c
:1010a80000bf0a4bd3f80c3103f04003402bf8d1b2
:1010b800074b6ff07f421a61054b40f2ff725a618d
:1010c800034b02221a6200bf80bd00bf001c004013
:0410d80000080040cc
:020000040000fa
:1010dc0080b400af174b4222c3f8842000bf154bdd
:1010ec00d3f8843003f04003402bf8d1124b00228c
:1010fc009a63114b77225a6300bf0f4bdb6b03f0e3
:10110c000403042bf9d00c4b022283f8302000bfcf
:10111c00094bdb6b03f00203022bf9d000bf064b2b
:10112c001b6c03f00303032bf9d100bfbd465df824
:0c113c00047b7047001c004000100040c5
:020000040000fa
:1011480080b400af154b01221a8000bf134b1b69f6
:1011580003f00103012bf9d0104b48f280121a80da
:101168000e4b4ff400721a6200bf0c4b1b6903f060
:101178002003202bf9d0094b00225a6200bf074bed
:101188001b6903f04003402bf9d0044b4ff48072e5
:101198005a8100bfbd465df8047b704700240040bb
:020000040000fa
:1011a8000e4a38b5002313600d4a0e4c13600e4ae0
:1011b8000e4d13600e4a13600e4a13600e4a5362b6
:1011c80013610123936000f03efa00f03cfaac4250
:1011d80000d338bd54f8043b9847f8e7fc020020d8
:1011e8006c0200206c0200006802002070020000ff
:0c11f80060020020640200207002002051
:020000040000fa
:10120400f0b50c4649682368a668e76887b00029ea
:101214000593a4bf23f00203059305ab02930a23ad
:10122400cde900630546d2e900232046fff7defe40
:101234002269059b0093013a3346121a391828464d
:10124400fff756fe6b68db0503d563689842b8bfa9
:06125400184607b0f0bdd2
:020000040000fa
:02125a00fee7ad
:020000040000fa
:10125c0080b483b000af03463960fb80b7f9063029
:10126c00002b0adb3b68dab20c49b7f906305201a5
:10127c00d2b20b4483f800230ae03b68dab2084987
:10128c00fb8803f00f03043b5201d2b20b441a76d5
:10129c0000bf0c37bd465df8047b704700e100e0f1
:0412ac0000ed00e071
:020000040000fa
:1012b00008b50d4b98470d4b984700f047f90220b1
:1012c00000f034fb00f06cf8094b23f07f03094a6f
:1012d0009360094b984700f07bf9084b9847084bff
:1012e0009847fff761fcfee7c3140000c314000039
:1012f0000000000000ed00e0a9110000c314000090
:04130000c314000012
:020000040000fa
:1013040030b589b015464ff0ff32019202f2031254
:10131400029200b96846cde9030151b14c1e00297f
:10132400059408da094b4f221a604ff0ff3009b0d8
:1013340030bd0c46f3e700220270cde906001a46e0
:10134400294601a800f02efbf1e700bf00030020ae
:020000040000fa
:1013540080b400af0f4b104a1a600e4b4ff62202b6
:101364009a810c4b4ff480325a6000bf094bdb6901
:10137400002bfbd1074b1b68064a43f002031360a2
:1013840000bf044bdb69002bfbd100bfbd465df8f9
:0c139400047b704700040043040110407b
:020000040000fa
:1013a00070b50e4b0e4a0021934208d30d480e4de6
:1013b0004ff6ff76016829b943681bb970bd03f881
:1013c000011bf1e783684268334000f10c0455f8d3
:1013d00023302046984704eb8000ebe70000002014
:0c13e00010000020a80a0000f81900000e
:020000040000fa
:1013ec0080b485b000af78607b6803f00703fb60c6
:1013fc000c4bdb68bb60ba684ff6ff031340bb6055
:10140c00fb681a02bb68134343f0bf6343f4003319
:10141c00bb60044abb68d36000bf1437bd465df89f
:08142c00047b704700ed00e0b5
:020000040000fa
:101434003d3d3d3d3d3d3d3d3d2054657374204e55
:10144400756d6265723a20256c750d0a696e70754a
:1014540074202076616c75653a20256c640d0a6fe2
:1014640075747075742076616c75653a20256c64aa
:081474000d0a0d0a000000bf83
:020000040000fa
:10147c0010b50278202a034600f10100f9d0a2f140
:10148c0009010429f5d92b2a07d02d2a11d10121c4
:10149c000133013b00200a2403e00021f8e76043fc
:1014ac00801a13f8012f303a092af8d901b94042b1
:0614bc0010bd0021ede768
:020000040000fa
:0214c200704771
:020000040000fa
:1014c40080b400af0c4b01225a7100bf0a4bdb7889
:1014d400dbb203f00103012bf8d1084b084a1a626e
:1014e40000bf064b5b6803f00403042bf9d000bf74
:1014f400bd465df8047b704700080040001c0040b6
:0415040007010100da
:020000040000fa
:1015080080b400af0e4b4ff480421a600c4b4ff47e
:1015180040421a610a4b002283f84e20084b0522ec
:1015280083f84f20064b012283f8d020044b022277
:1015380083f8b82000bfbd465df8047b704700bf44
:0415480000800041de
:020000040000fa
:10154c0080b483b000afeff310833b603b687b60eb
:10155c0072b60b4bd3f88830094a43f47003c2f8c7
:10156c008830bff34f8fbff36f8f7b68002b00d198
:10157c0062b600bf0c37bd465df8047b704700bff8
:04158c0000ed00e08e
:020000040000fa
:1015900010b5054c227832b9044b13b10448aff3af
:1015a00000800123237010bdb00200200000000065
:1015b0000000000008b5034b1bb103490348aff31b
:1015c000008008bd00000000b40200200000000000
:020000040000fa
:1015d00080b400af0d4b9b680c4a23f0010393606d
:1015e00000bf0a4bdb6803f00103012bf9d0074b66
:1015f0005b68064a43f004035360044b01229a607f
:1016000000bfbd465df8047b704700bf006000412d
:020000040000fa
:1016100080b500af0020fff7e9febff35f8f62b631
:1016200007210b20fff71afe0b2000f02ff80721ef
:101630001b20fff713fe1b2000f028f807211f20b6
:0e164000fff70cfe1f2000f021f800bf80bd58
:020000040000fa
:02164e007047e3
:020000040000fa
:1016500080b485b000af0346b9607a60fb73fb7b52
:10166000094a1b0113440433ba681a60fb7b064a1b
:101670001b01134408337a681a6000bf1437bd4653
:0c1680005df8047b704700bf00000020f4
:020000040000fa
:10168c0080b483b000af0346fb80b7f90630002b63
:10169c000bdbfb8803f01f020749b7f906305b0927
:1016ac00012000fa02f241f8232000bf0c37bd469e
:0c16bc005df8047b704700bf00e100e017
:020000040000fa
:1016c80080b500af0b4b9b899bb21a460a4b5a60f8
:1016d800084b4cf2ff329a81074b1b68002b07d04e
:1016e800054b1b68044a5068034a9268114698479c
:0c16f80000bf80bd00240040f002002074
:020000040000fa
:1017040030b50c4a002312f8134024b902eb43030a
:101714005b78184630bd01680d78a54209bf02eb1d
:10172400430301335b78013114bfdbb201600a2b40
:08173400e9d9eee750190000ad
:020000040000fa
:10173c0080b500af094b4ff400425a61084bd3f807
:10174c00b430002b07d0064bd3f8b430044ad2f88f
:10175c00b8201046984700bf80bd00bf002800404d
:04176c00a0010020b8
:020000040000fa
:1017700080b582b000af786000f008f9fff7c4fed2
:10178000fff772fc00f081f9fff716fbfff7e2fdaf
:10179000fff708f9fff7d8fcfff73aff00bf08375b
:0417a000bd4680bd05
:020000040000fa
:1017a40080b400af094b1b889bb2084a43f0020384
:1017b4009bb2138000bf054b1b6903f00203022b8d
:1017c400f9d000bfbd465df8047b7047002400409b
:020000040000fa
:1017d40053b94ab9002908bf00281cbf4ff0ff3194
:1017e4004ff0ff3000f078b9adf1080c6de904ce8c
:1017f400fef7ccfeddf804e0dde9022304b0704717
:020000040000fa
:1018040080b400af074b084a5a6200bf054b5b68bf
:1018140003f00803082bf9d000bfbd465df8047b34
:0c182400704700bf001c004007010200dc
:020000040000fa
:1018300080b400af074b084a9a6200bf054b5b6853
:1018400003f01003102bf9d000bfbd465df8047bf8
:0c185000704700bf001c00400601300083
:020000040000fa
:10185c0080b483b000af786039607b6803f4807328
:10186c00002b02d0044b01221a7000bf0c37bd466e
:0c187c005df8047b704700bf04030020ef
:020000040000fa
:10188800802910db812901dd83290cd113680733f6
:1018980023f0070303f108011160d3e90023c0e92d
:0a18a8000023012070470020704764
:020000040000fa
:1018b40080b483b000af78603960064a7b681360f7
:1018c400044a3b68936000bf0c37bd465df8047b57
:0818d400704700bff002002084
:020000040000fa
:1018dc0080b483b000af03463960fb71fb79012bf8
:1018ec0002d1044b01221a7000bf0c37bd465df8c3
:0818fc00047b70470503002086
:020000040000fa
:1019040038b505699542044628bf15462a464069fc
:1019140000f07af8636922692b44551b0022636145
:0619240025611a7038bdb8
:020000040000fa
:10192c0080b483b000af78607b681b01044a03f07d
:10193c007003536000bf0c37bd465df8047b7047e5
:04194c0000600041f6
:020000040000fa
:1019500068076c094c836a9074a07ac0008068881c
:0e19600000846c820081286e696c29002500cd
:020000040000fa
:10196e0010b50023934206d113f0030018bf0120d7
:0e197e0000eb930010bdc45ccc540133f2e7c3
:020000040000fa
:10198c0080b400af044b40f204521a8000bfbd4635
:0c199c005df8047b704700bf0040004174
:020000040000fa
:1019a80013b50446019201aafef76afc636813f0b6
:0c19b800100f18bf4ff0ff3002b010bd40
:020000040000fa
:1019c4000cb407b504ab53f8042b0193fff798fc50
:0a19d40003b05df804eb02b07047a9
:020000040000fa
:1019e00080b400af034b00221a7400bfbd465df8ff
:0819f000047b70470014004065
:020000040000fa
:1019f8001f1a00006f190000cb1a0000cb1a000054
:041a0800cb1a0000f5
:020000040000fa
:101a0c0010b500239a4200d110bdcc5cc4540133f4
:021a1c00f8e7e9
:020000040000fa
:101a1e000a440023914201d10020704701f8013b96
:021a2e00f8e7d7
:020000040000fa
:101a30002de9f04f00f12a00bde8f04ff74600bf56
:020000040000fa
:101a400002440346934200d1704703f8011bf9e7b3
:020000040000fa
:101a500003461a46013311780029fad1101a70474b
:020000040000fa
:0e1a600080b400af00bfbd465df8047b704748
:020000040000fa
:0e1a6e0080b400af00bfbd465df8047b70473a
:020000040000fa
:0e1a7c0080b500af0020fff7e9f900bf80bd84
:020000040000fa
:0e1a8a0080b400af00bfbd465df8047b70471e
:020000040000fa
:0e1a9800a0f14103192b98bf40f020007047c9
:020000040000fa
:061aa60080b400affee772
:020000040000fa
:061aac0080b400affee76c
:020000040000fa
:061ab20080b400affee766
:020000040000fa
:061ab80080b400affee760
:020000040000fa
:061abe0080b400affee75a
:020000040000fa
:061ac40080b400affee754
:020000040000fa
:041aca000020704741
:020000040000fa
:041ace00002070473d
:020000040000fa
:041ad2000020704739
:020000040000fa
:041ad6000020704735
:020000040000fa
:041adc00704700bf90
:020000040000fa
:0200000400807a
:044000003912003c35
:020000040000fa
:0200000400807a
:044004008000a82a66
:020000040000fa
:0200000400807a
:04400800ffffffffb8
:00000001FF
